:020000040800F2
:10000000A047002089010008551700087502000864
:1000100051170008E5050008291B00080000000032
:100020000000000000000000000000009B0100082C
:10003000E905000800000000F7010008811700082A
:10004000A3010008A3010008A3010008A301000800
:10005000A3010008A3010008A3010008A3010008F0
:10006000A3010008A3010008A3010008A3010008E0
:10007000A3010008A3010008A3010008A3010008D0
:10008000A3010008A3010008A3010008A3010008C0
:10009000A3010008A3010008A3010008A3010008B0
:1000A000A3010008A3010008A3010008A3010008A0
:1000B000A3010008A3010008A1180008A30100087B
:1000C000A3010008A3010008A3010008A301000880
:1000D000A3010008A3010008A3010008A301000870
:1000E000A3010008A3010008A301000800F002F822
:1000F00000F03AF80AA090E8000C82448344AAF188
:100100000107DA4501D100F02FF8AFF2090EBAE885
:100110000F0013F0010F18BFFB1A43F0010318473B
:100120001454000034540000103A24BF78C878C139
:10013000FAD8520724BF30C830C144BF04680C60ED
:10014000704700000023002400250026103A28BF35
:1001500078C1FBD8520728BF30C148BF0B60704739
:100160001FB51FBD10B510BD00F002FA1146FFF714
:10017000F7FF00F032FA00F020FA03B4FFF7F2FFC5
:1001800003BC00F023FA00000948804709480047F3
:10019000FEE7FEE7FEE7FEE7FEE7FEE7FEE7FEE737
:1001A000FEE7FEE704480549054A064B7047000094
:1001B0009D180008ED000008A0410020A047002085
:1001C000A0430020A0430020EFF3108072B67047D8
:1001D00080F310887047344A1368012B04D04FF025
:1001E00001031360314A1060314A116031484FF009
:1001F000805101607047EFF3108272B62A4801689F
:1002000091B14FF0000101602848016829B1EFF376
:10021000098121E9F00F0068016025490968096832
:10022000B1E8F00F81F3098882F310884EF0040ED4
:1002300070471F4908601D494FF0000008601A49C7
:100240004FF0010008601C481C49D0F8002041EA2A
:100250000201016017484FF08051016018480068A2
:10026000006880F3088861B662B6BFF34F8FBFF3B2
:100270006F8F70471EF0040F0CBFEFF30880EFF391
:10028000098020E9F00F40F804ED1EF0040F0CBFC8
:1002900080F3088880F3098800B503F027FA5DF839
:1002A00004EB4EF0040E70472800002020000020D0
:1002B0002400002004ED00E020ED00E00000FFFF3E
:1002C00008ED00E040EA0103024630B59B0710D17B
:1002D0004FF0013400E008C208C91D1B9D4315EA18
:1002E000C41FF8D013F0FF0102F8011B0DD01B0A48
:1002F000F8E711F8013B002B02F8013B05D011F89B
:10030000013B002B02F8013BF3D130BD10B5431C7B
:1003100002E010F8011B71B18107FAD14FF00132F0
:1003200002C88C1A8C4314EAC211F9D0C01A0A060A
:1003300003D0C01E10BDC01A10BD0A0401D0801E1B
:1003400010BD0902FCD0401E10BD40EA010370B58B
:100350009B072ED14FF00136042A2AD308C810C9B2
:100360009D1B9D43121F15EAC61517D0D8B2E1B2E6
:10037000401A50EA056110D198B2A1B2401A50EA71
:1003800005410AD123F07F4024F07F41401A50EA12
:10039000052102D1180EA0EB146070BDA342DBD082
:1003A00018BA21BA884201D9012070BD4FF0FF3040
:1003B00070BD0AB9002070BD10F8013B11F8014B67
:1003C00063B1A3420AD1521E08D010F8013B11F8C4
:1003D000014B1BB1A34201D1521EEDD1181B70BDC0
:1003E000421E12F8013F002BFBD111F8013B002BFC
:1003F00002F8013BF9D170474FF0000200B51346F7
:1004000094469646203922BFA0E80C50A0E80C5034
:10041000B1F12001BFF4F7AF090728BFA0E80C50E5
:1004200048BF0CC05DF804EB890028BF40F8042BDE
:1004300008BF704748BF20F8022B11F0804F18BF4B
:1004400000F8012B704710B5044610F0030F08BFE9
:1004500011F0030F40F015804FF0013E121FC0F263
:100460000E8051F8043BA3EB0E0C2CEA030C1CEAA3
:10047000CE1C08BF40F8043BF0D0A1F1040102F10A
:100480000402521E08DB11F8013B002B00F8013B6F
:10049000F7D1114600F045F8204610BD4FF0013C61
:1004A00050F8042B51F8043B9A4221D1A2EB0C03E3
:1004B000934313EACC1317D150F8042B51F8043BA3
:1004C0009A4215D1A2EB0C03934313EACC130BD140
:1004D00050F8042B51F8043B9A4209D1A2EB0C03CB
:1004E000934313EACC13DBD04FF00000704700BFFA
:1004F000D01A01BAB1FA81F101F0180122FA01F023
:10050000CB40C1F12001DBB2C0B2C01A2CFA01F31A
:10051000D11A914311EAC311E6D170477047704771
:1005200070474FF000020429C0F0128010F0030C55
:100530003FF464AFCCF1040CBCF1020F18BF00F81B
:10054000012BA8BF20F8022BA1EB0C01FFF756BF2F
:100550005FEAC17C24BF00F8012B00F8012B48BFE3
:1005600000F8012B70470000004870473C41002014
:100570007546FFF7F9FFAE4605006946534620F081
:100580000700854618B020B5FFF70CFEBDE82040F7
:100590004FF000064FF000074FF000084FF0000B3F
:1005A00021F00701AC46ACE8C009ACE8C009ACE8F2
:1005B000C009ACE8C0098D46704710B50446AFF3DA
:1005C00000802046BDE81040FFF7D7BD0149182044
:1005D000ABBEFEE726000200704710B504F0DDFB5D
:1005E000002010BD00BFFEE7704772B600BFFEE7F7
:1005F0002DE9F8470346002294466EE14FF00108CA
:1006000008FA02F4D1F8008008EA0400A0427DD183
:10061000DFF8DCA2D1F80480A8EB0A09D0453AD073
:1006200014DCB8F1030F50D009DCB8F1000F31D061
:10063000B8F1010F1CD0B8F1020F49D120E0B8F198
:10064000110F18D0B8F1120F42D11EE0B9F5881F72
:1006500025D006DCB9F5803F20D0B9F5801F37D111
:100660001AE0B9F5001F18D0B9F5041F30D117E012
:10067000D1F80CC02DE0D1F80C8008F1040C28E072
:10068000D1F80C8008F1080C23E0D1F80C8008F1B7
:100690000C0C1EE000BF00BF00BF00BF00BF00BFCA
:1006A000D1F80880B8F1000F02D14FF0040C0BE034
:1006B000D1F80880B8F1010F03D14FF0080C1C618C
:1006C00002E04FF0080C5C6103E04FF0000C00E02A
:1006D00000BF00BFFF2801D8984601E003F10408DD
:1006E0004646FF2802D84FEA820803E0A2F1080834
:1006F0004FEA88084746D6F800804FF00F0909FAFC
:1007000007F928EA09080CFA07F900E088E048EA46
:100710000908C6F80080D1F8048008F08058B8F1C4
:10072000805F7DD100BFDFF8CC81D8F8188048F019
:100730000108DFF8C091C9F81880C846D8F81880B9
:1007400008F00108CDF8008000BF00BF4FEAB938BB
:100750004FEA920958F829504FEA82784FEA1879FF
:100760004FF00F0808FA09F825EA0805DFF8888134
:10077000434502D14FF0000816E0DFF88081434581
:1007800002D14FF001080FE0DFF87481434502D138
:100790004FF0020808E0DFF86C81434502D14FF0CA
:1007A000030801E04FF004084FEA82794FEA197913
:1007B00008FA09F848EA0505DFF84C814FEA920982
:1007C00048F82950D1F8048008F48018B8F5801F43
:1007D0000AD1DFF83881D8F8008048EA0008DFF84D
:1007E0002C91C9F8008009E0DFF82081D8F800805A
:1007F00028EA0008DFF81491C9F80080D1F80480D5
:1008000008F40018B8F5001F10D1DFF8008108F1D6
:100810000408D8F8008048EA0008DFF8F09000E00B
:100820005AE009F10409C9F800800DE0DFF8DC8026
:1008300008F10408D8F8008028EA0008DFF8CC9016
:1008400009F10409C9F80080D1F8048008F40038DF
:10085000B8F5003F0ED1DFF8B480A8F10408D8F84D
:10086000008048EA0008DFF8A490A9F10409C9F85B
:1008700000800DE0DFF89480A8F10408D8F800802B
:1008800028EA0008DFF88490A9F10409C9F800807B
:10089000D1F8048008F48038B8F5803F0ED1DFF835
:1008A0006C80A8F10808D8F8008048EA0008DFF852
:1008B0005C90A9F10809C9F800800DE0DFF84C80D0
:1008C000A8F10808D8F8008028EA0008DFF83C9072
:1008D000A9F10809C9F80080521CD1F8008028FA53
:1008E00002F8B8F1000F7FF489AEBDE8F887000088
:1008F000000011100010024000080140000C0140EF
:1009000000100140001401400800014008040140AB
:100910000AB1016101E00B040361704701480068FE
:100920007047000000000020034800680349097870
:1009300008440149086070470000002008000020BA
:1009400010B50848006840F0100006490860032010
:1009500000F0DCF80F2000F007F800F05FF800204E
:1009600010BD0000002002402DE9F04188B004468F
:100970000027B846002600BF2348C06940F00400A5
:100980002149C8610846C06900F00400019000BF19
:1009900000BF02A903A800F093F9069F1FB900F059
:1009A000B7F9054602E000F0B3F945001748B5FB7A
:1009B000F0F0A0F1010816481649086040F2E7314E
:1009C0001448C160C0F80480002101618160816128
:1009D00000F044FC064696B90E4800F073FC06464B
:1009E0006EB91E2000F044F8102C07D200222146D8
:1009F0001E2000F04DF80848046000E00126304653
:100A000008B0BDE8F08100000010024040420F0035
:100A100000080040300100200400002008B500BF9D
:100A20001148806940F001000F49886108468069DB
:100A300000F00100009000BF00BF00BF0846C06981
:100A400040F08050C8610846C06900F080500090B6
:100A500000BF00BF00BF0549486820F0E06040F0DB
:100A60000070486000BF08BD001002400000014057
:100A700001460846002809DB00F01F0301229A40C6
:100A800043099B0003F1E023C3F8002100BF704736
:100A90002DE9F05F80460D461646002701F046F826
:100AA000074639462A46334601F00700C0F1070AD7
:100AB000BAF1040F02D94FF0040A01E0C0F1070AAD
:100AC000D14600F1040ABAF1070F02D24FF0000A32
:100AD00001E0A0F1030AD4464FF0010A0AFA09FA2C
:100AE000AAF1010A0AEA020A0AFA0CFA4FF0010B0B
:100AF0000BFA0CFBABF1010B0BEA030B4AEA0B04FC
:100B00002146404601F01AF8BDE8F09F00BF00F012
:100B10000702064B19684FF6FF031940044B0B43BD
:100B200043EA0221014B196000BF70470CED00E061
:100B30000000FA0570B504460D460CB9012070BDE1
:100B40005A48006800F00700A8420ED257480068D3
:100B500020F007002843554908600846006800F067
:100B60000700A84201D00120E9E7207800F0020048
:100B700002281DD1207800F00400042805D14C483B
:100B8000406840F4E0604A494860207800F008007E
:100B9000082805D14648406840F460504449486000
:100BA0004348406820F0F000A1680843404948608D
:100BB000207800F0010078B36068012806D13C4835
:100BC000006800F4003090B90120B8E7606802289E
:100BD00006D13748006800F0007040B90120AEE748
:100BE0003348006800F0020008B90120A7E7304848
:100BF000406820F00300616808432D494860FFF712
:100C00008DFE064609E0FFF789FE801B41F2883120
:100C1000884202D9032092E707E02548406800F0A7
:100C20000C006168B0EB810FEDD12048006800F046
:100C30000700A8420ED91D48006820F0070028438D
:100C40001A4908600846006800F00700A84201D071
:100C5000012074E7207800F00400042807D114482C
:100C6000406820F4E060E16808431149486020785A
:100C700000F00800082808D10D48406820F46050B2
:100C8000216940EAC1000A49486000F061F808495A
:100C90004968C1F30311074A515CC840064908601E
:100CA00006480068FFF760FE002048E70020024089
:100CB00000100240B04F00080C000020040000208B
:100CC0000F2202600D4A526802F0030242600B4A92
:100CD000526802F0F0028260084A526802F4E06250
:100CE000C260064A526802F46052D2080261044AA5
:100CF000126802F007020A6070470000001002400C
:100D00000020024001480068704700000C000020ED
:100D100000B5FFF7F7FF04494968C1F30221034A10
:100D2000515CC84000BD000000100240C04F0008E8
:100D300000B5FFF7E7FF04494968C1F3C221034A40
:100D4000515CC84000BD000000100240C04F0008C8
:100D500070B500210022002400230020134D696893
:100D600001F00C05F5B1042D02D0082D19D101E0D8
:100D70000F4819E00F4DC1F38346AB5D01F4803598
:100D800055B10A4D6D68C5F340450B4E725D084D77
:100D90005D43B5FBF2F402E0084D03FB05F4204689
:100DA00002E000BF024800BF00BF70BD001002405B
:100DB00000127A009E4F0008AE4F000800093D0067
:100DC000F8B504460CB90120F8BD207800F0010008
:100DD000002878D0F848406800F00C0004280CD0B7
:100DE000F548406800F00C00082811D1F24840682E
:100DF00000F48030B0F5803F0AD1EF48006800F47D
:100E0000003000285FD0606800285CD10120DBE75B
:100E100000BF6068B0F5803F06D1E748006840F445
:100E20008030E549086028E0606858B9E248006809
:100E300020F48030E04908600846006820F48020F3
:100E400008601AE06068B0F5A02F0BD1DA4800689E
:100E500040F48020D84908600846006840F480309B
:100E600008600AE0D448006820F48030D249086065
:100E70000846006820F48020086000BF606888B1E0
:100E8000FFF74CFD054606E0FFF748FD401B6428D0
:100E900001D9032098E7C848006800F40030002812
:100EA000F2D010E0FFF73AFD054606E0FFF736FD09
:100EB000401B642801D9032086E7BF48006800F47E
:100EC00000300028F2D1207800F00200022857D12B
:100ED000B948406800F00C0050B1B748406800F0D5
:100EE0000C00082818D1B448406800F4803098B944
:100EF000B148006800F0020020B12069012801D04B
:100F0000012061E7AC48006820F0F800616940EA20
:100F1000C100A949086033E02069E8B10120A74970
:100F20000860FFF7FBFC054606E0FFF7F7FC401BF7
:100F3000022801D9032047E79F48006800F002001B
:100F40000028F2D09C48006820F0F800616940EA6F
:100F5000C1009949086013E0002098490860FFF734
:100F6000DDFC054606E0FFF7D9FC401B022801D94D
:100F7000032029E79048006800F002000028F2D121
:100F8000207800F0080008282DD1A069B8B1012010
:100F90008B490860FFF7C2FC054606E0FFF7BEFC80
:100FA000401B022801D903200EE78348406A00F065
:100FB00002000028F2D0012000F0CEFB13E0002058
:100FC0007F490860FFF7AAFC054606E0FFF7A6FC8C
:100FD000401B022801D90320F6E67748406A00F05A
:100FE00002000028F2D1207800F00400042873D118
:100FF00000277148C06900F0805070B900BF6E488A
:10100000C06940F080506C49C8610846C06900F072
:101010008050009000BF00BF01276A48006800F4BC
:101020008070B0B96748006840F480706549086016
:10103000FFF774FC054606E0FFF770FC401B6428D0
:1010400001D90320C0E65F48006800F480700028E2
:10105000F2D000BFE068012806D15748006A40F08E
:1010600001005549086227E0E06858B95248006A13
:1010700020F00100504908620846006A20F0040090
:10108000086219E0E06805280BD14B48006A40F07F
:101090000400494908620846006A40F001000862FD
:1010A0000AE04548006A20F001004349086208460A
:1010B000006A20F00400086200BFE068A0B1FFF7FA
:1010C0002DFC054609E0FFF729FC401B41F2883161
:1010D000884202D9032077E622E03748006A00F010
:1010E00002000028EFD012E0FFF718FC054608E0E8
:1010F000FFF714FC401B41F28831884201D90320DC
:1011000062E62D48006A00F002000028F0D1012FAD
:1011100005D12948C06920F080502749C86100BF27
:10112000E069C8B32448406800F00C00082860D08B
:10113000E069022848D1002020490866FFF7EEFB4D
:10114000054606E0FFF7EAFB401B022801D9032011
:101150003AE61948006800F000700028F2D1206AD1
:10116000B0F5803F07D11448406820F40030A168F2
:10117000084311494860D4E9080108430E49496809
:1011800021F4741108430C49486001200B4908669A
:10119000FFF7C4FB054607E03DE0FFF7BFFB401B40
:1011A000022801D903200FE60348006800F0007010
:1011B0000028F2D02FE00000001002400000424260
:1011C0008004424200700040002014490866FFF786
:1011D000A5FB054606E0FFF7A1FB401B022801D94D
:1011E0000320F1E50E48006800F000700028F2D1FD
:1011F00011E0E069012800D1E6E50948466806F4F7
:101200008031206A814204D106F47011606A814203
:1012100001D00120D8E50020D6E5000000004242C0
:101220000010024070B504462546681EB0F1807F6C
:1012300001D301200FE0681E4FF0E02148610F212B
:101240004FF0FF3000F07AFC00204FF0E021886181
:1012500007200861002070BD7047704710B5044634
:101260000CB9012010BD94F83D0028B9002084F885
:101270003C00204600F025F8022084F83D00211DA6
:10128000206800F015FB012084F8460000BF84F8B8
:101290003E0001213F2001554020015541200155CC
:1012A00000BF00BF012084F84200432001554420C4
:1012B00001554520015500BF012084F83D00002064
:1012C000D0E77047014691F83D00012801D0012088
:1012D0007047022081F83D000868C06840F00100B6
:1012E0000B68D860124B086898420BD00868B0F1C0
:1012F000804F07D00F4B0868984203D00E4B086808
:1013000098420CD10868806800F00702062A0CD0C9
:101310000868006840F001000B68186005E0086884
:10132000006840F001000B6818600020D0E7000062
:10133000002C01400004004000080040704770B5D8
:1013400004462068C5682068066906F00200022885
:1013500019D105F00200022815D1401F216808614B
:10136000012020772068806900F0030018B1204632
:10137000FFF7E4FF05E0204600F097F8204600F074
:1013800095F80020207706F00400042819D105F014
:101390000400042815D1C043216808610220207789
:1013A0002068806900F4407018B12046FFF7C6FF3E
:1013B00005E0204600F079F8204600F077F800209C
:1013C000207706F00800082819D105F00800082841
:1013D00015D1C04321680861042020772068C069C6
:1013E00000F0030018B12046FFF7A8FF05E02046F3
:1013F00000F05BF8204600F059F80020207706F056
:101400001000102819D105F01000102815D1C04384
:1014100021680861082020772068C06900F44070C6
:1014200018B12046FFF78AFF05E0204600F03DF89E
:10143000204600F03BF80020207706F0010048B17C
:1014400005F0010030B16FF001002168086120460D
:1014500000F02EF806F08000802809D105F0800009
:10146000802805D1C043216808612046FFF7F4FEBB
:1014700006F04000402809D105F04000402805D181
:10148000C04321680861204600F01EF806F02000E5
:10149000202809D105F02000202805D1C04321686B
:1014A00008612046FFF7D9FE70BD70477047000005
:1014B00010B5044603492068884201D1FFF734FA89
:1014C00010BD000000080040704710B504460CB97C
:1014D000012010BDA06900B100E000BF94F84100F8
:1014E00028B9002084F84000204600F029F8242084
:1014F00084F841002068C06820F400502168C8606A
:10150000204600F04DFA2068006920F490402168E0
:1015100008612068406920F02A002168486120683D
:10152000C06840F400502168C8600020606420203A
:1015300084F8410084F842000020606300BFC8E7DF
:1015400010B586B0044600200290039004900590E8
:101550001A49206888422ED100BF1948806940F49A
:101560008040174988610846806900F480400190F6
:1015700000BF00BF00BF0846806940F004008861DA
:101580000846806900F00400019000BF00BF4815C4
:101590000290022003900320059002A90948FFF75A
:1015A00027F84FF48060029000200390049002A975
:1015B0000448FFF71DF806B010BD000000380140D8
:1015C00000100240000801402DE9F84F04460E4685
:1015D000174699464FF0000A94F84100202850D150
:1015E00006B117B90120BDE8F88F00206064212002
:1015F00084F84100FFF792F98246A784E784A06847
:10160000B0F5805F04D1206910B90025B04602E032
:1016100035464FF000081EE0534600228021204648
:10162000CDF8009000F03AFA20B1202084F8410073
:101630000320D8E745B9B8F80000C0F308002168D6
:10164000486008F1020803E02878216848606D1CB2
:10165000E08C401EE084E08C0028DDD1534600225F
:1016600040212046CDF8009000F018FA20B120204B
:1016700084F841000320B6E7202084F841000020D0
:10168000B1E70220AFE7000000B585B0002001906F
:1016900002900390049000BF1D48806940F0100044
:1016A0001B4988610846806900F01000009000BF67
:1016B00000BF00BF0846806940F0200088610846EE
:1016C000806900F02000009000BF00BF00BF084606
:1016D000806940F0040088610846806900F00400D9
:1016E000009000BF00BF00224FF400510948FFF7EF
:1016F0000FF94FF400500190012002900020039058
:101700000220049001A90348FEF772FF05B000BD56
:10171000001002400010014010B50B480B49086052
:101720004FF4E1304860002108488160C1600161E8
:101730000C21416100218161C161FFF7C6FE08B142
:10174000FEF753FF10BD000000380140E800002004
:1017500000BFFEE700BFFEE708B508490968C908F1
:101760004FF47A72B1FBF2F14143009100BF00BF28
:1017700000994A1E00920029F9D108BD0C000020F2
:1017800010B502F0DBF802F0E7FF02F0F5F810BD4B
:1017900000B58FB0282105A8FEF72EFE142168465B
:1017A000FEF72AFE01200590000406900020079015
:1017B0000120099002200C90C1030D914FF4E0111B
:1017C0000E9105A8FFF7FCFA08B1FEF70EFF0F20F7
:1017D000009002200190002002904FF4806003905E
:1017E0000020049002216846FFF7A4F908B1FEF733
:1017F000FCFE0FB000BD000010B50021002000224B
:10180000214B5B6803F00C0121B1042906D00829A3
:1018100028D107E01D4B1E4C236027E01B4B1C4CBE
:10182000236023E0184B5B6803F47010164B5B6871
:1018300003F48032022303EB904022B9154B43435B
:10184000134C23600DE0104B5B6803F4003323B1AD
:10185000104B43430E4C236003E00C4B43430C4CB2
:10186000236003E0094B0A4C236000BF00BF064B16
:101870005B68C3F30313084CE15C054B1B68CB406A
:10188000034C236010BD00000010024000127A00DB
:101890000C00002000093D00B04F00087047000018
:1018A00010B50248FFF74BFD10BD000030010020CD
:1018B00010B502681C4B984208D0B0F1804F05D09B
:1018C0001A4B984202D01A4B984203D122F0700270
:1018D0004B681A43144B984208D0B0F1804F05D0A2
:1018E000124B984202D0124B984203D122F440721C
:1018F000CB681A4322F080034C6943EA0402026079
:101900008B68C3620B688362074B984201D10B69F5
:10191000036301234361036903F001031BB10369FE
:1019200023F00103036110BD002C014000040040BE
:101930000008004000BF00BF02680C3252E8002FD0
:1019400022F4907102680C3242E80013002BF3D1AC
:1019500000BF00BF00BF0268143252E8002F22F01F
:1019600001010268143242E80013002BF3D100BFDA
:10197000016B01290ED100BF00BF02680C3252E892
:10198000002F22F0100102680C3242E80013002BF5
:10199000F3D100BF202180F842100021016370477D
:1019A00070B504462168096921F44051E268114389
:1019B000226811612269A1681143626941EA020546
:1019C0002168C96841F20C62914329432268D160C1
:1019D0002168496921F44071A2691143226851616B
:1019E0002D4A2168914202D1FFF7A2F901E0FFF7E9
:1019F0008FF900EBC00101EB001162689200B1FBAE
:101A0000F2F100EBC00202EB001263689B00B2FB34
:101A1000F3F26423B2FBF3F202EBC20303EB021214
:101A2000A1EB8201322202EB01116422B1FBF2F13F
:101A300001F0F00100EBC00202EB001263689B00B2
:101A4000B2FBF3F26423B2FBF3F201EB021200EB00
:101A5000C00101EB001163689B00B1FBF3F100EBE7
:101A6000C00303EB00136668B600B3FBF6F364260D
:101A7000B3FBF6F303EBC30606EB0313A1EB830101
:101A8000322303EB01116423B1FBF3F101F00F01E9
:101A900011442268916070BD003801402DE9F8437F
:101AA00004460D4617469846089E31E0701C70B3F8
:101AB000FEF734FFA0EB0800B04200D816B90320AF
:101AC000BDE8F8832068C06800F00400F8B1802DFC
:101AD0001ED0402D1CD020680068C0F3C000B0B1FB
:101AE00000BF0020009020680068009020684068D7
:101AF000009000BF00BF2046FFF71CFF0820606475
:101B000000BF002084F8400000BF0120D8E7FFE7B5
:101B1000206800682840A84201D1012000E0002090
:101B2000B842C3D00020CBE700BFFEE70248006800
:101B3000C0F30220704700000CED00E010B5002853
:101B400004DB0A07130E054A135406E00A07140EB5
:101B5000034A00F00F031B1FD45410BD00E400E043
:101B600018ED00E0014609B900207047C8B220B165
:101B7000C8B20E4A105C401CF7E701F47F4028B160
:101B80000A48C1F30722805C0930EEE701F47F00C8
:101B900028B10648C1F30742805C1130E5E70348ED
:101BA00000EB116000781930DFE7000040500008BA
:101BB00010B501F005FD002010BD10B5044601F080
:101BC0000FFD10BD2DE9F04105460C46904620461C
:101BD00002F07CFDB8F1000F03D0B8F1010F23D162
:101BE00005E004F11401284601F00DFF1DE02E6808
:101BF0000FE0A6F1140794F8350097F835108842E5
:101C000006DA04F1140107F1140001F0FCFE02E011
:101C10003668AE42EDD100BFAE4204D104F11401EA
:101C2000284601F0F0FE00E000BF00BF0020BDE844
:101C3000F081014601F114004060006000BF002007
:101C400070472DE9F04389B0064688469146002446
:101C500000E0641C305D202804D0305D092801D0EC
:101C60004445F6D324B94FF0FF3009B0BDE8F08306
:101C70002146304601F0BEF9054615B94FF0FF3058
:101C8000F3E72022002101A801F06BFF01AA4146E1
:101C9000304601F001FA074617B94FF0FF30E4E78C
:101CA00001A93846A847C9F800000020DDE7000078
:101CB00070B5044606480068FFF754FF451E054806
:101CC00050F83500A0F114062560304670BD0000C4
:101CD000CC000020F403002070B502F0BBFC0446E9
:101CE000FEF772FA0546204602F0F8F804F14400C7
:101CF00002F0E0FD042084F83400204602F022FCCB
:101D00002846FEF765FA02F00DF870BD2DE9FC5F7C
:101D100004468B4615461E46DDE90D9ADDF83080F7
:101D20000F9F04F114004060006000BF25626662EE
:101D3000C4F82880C4F82C902321D4E90A0201F0C9
:101D400010FFD4E90A3C63441A1F0E4BD4E9080182
:101D500001F0CEFDE06184F835A00020A063E763C8
:101D60002764206384F8340020676067009023466E
:101D7000054A2146019004F1440002F0AFFD002025
:101D8000BDE8FC9FD91C00088D1D000870B50446F5
:101D90002546FEF719FA06466FF00100286305F1A3
:101DA000140001F05AFE284602F04AF83046FEF7C9
:101DB0000FFA01F0B7FF70BD2DE9F04704460E465B
:101DC00017469846DDF8209084F80990607A20F054
:101DD00001006072E66127620020A062C4F82480DE
:101DE000002506E004F1140101EBC50001F0FAFD45
:101DF0006D1C012DF6DBBDE8F08770B505460024AB
:101E000006E005F1140101EBC40001F02FFE641C93
:101E1000012CF6DB70BD000010B520A001F0BCFD68
:101E20002148017821A001F0B7FD1F48007800F09B
:101E3000010010B123A001F0AFFD1B48007800F0B5
:101E4000020010B122A001F0A7FD1748007800F0B1
:101E5000040010B121A001F09FFD1348007800F0AC
:101E6000080010B121A001F097FD0F48007800F0A4
:101E7000100010B120A001F08FFD0B48007800F099
:101E8000800030B108480F3001681DA001F084FDCA
:101E900002E01FA001F080FD10BD000062757320FC
:101EA0006661756C743A0A0029ED00E05343425FA5
:101EB000434653525F424653523A307825303258A7
:101EC00020000000494255534552522000000000B6
:101ED000505245434953455252200000494D5052FB
:101EE000454349534552522000000000554E53547B
:101EF0004B4552522000000053544B455252200093
:101F00005343422D3E424641523A253038580A004A
:101F10000A00000010B502A001F03EFD002010BD37
:101F20001B5B324A1B5B480070B505460C46022D10
:101F300022D11CA16068FEF7B1FA10B900F07EFD55
:101F400018E01AA16068FEF7A9FA10B900F06CFE5B
:101F500010E018A16068FEF7A1FA10B900F0CEFCFD
:101F600008E015A16068FEF799FA10B900F0D8FBF7
:101F700000E002E0002070BD00BF11A001F00CFDE8
:101F800015A001F009FD17A001F006FD1CA001F04D
:101F900003FD22A001F000FD27A001F0FDFC0020C0
:101FA000E9E70000746872656164000074696D653A
:101FB0007200000073656D006465766963650000FA
:101FC00055736167653A206C697374205B6F707438
:101FD000696F6E735D0A00005B6F7074696F6E737A
:101FE0005D3A0A0020202020746872656164202D0B
:101FF000206C69737420746872656164730A0000F0
:102000002020202074696D6572202D206C69737406
:102010002074696D6572730A000000002020202082
:1020200073656D202D206C6973742073656D61700C
:10203000686F7265730A000020202020646576694D
:102040006365202D206C697374206465766963650F
:10205000730A000010B51048006890F82100C0F322
:10206000400020B900200D490870084610BD0C48FA
:10207000006830B180220A4801680848FEF7E3F999
:1020800003E008A10548FEF71DF908A10348FEF783
:10209000A7F90248EAE700001800002078010020B4
:1020A0001C0000206D736820000000003E0000004E
:1020B00038B50020009012480068846F14B94FF0C2
:1020C000FF3038BD11E04FF0FF310D48006801F0DE
:1020D00071FF0B480068806FA04206D00848006876
:1020E000846F14B94FF0FF30EBE701236A46991E65
:1020F000204601F022FA0128E5D19DF80000E0E732
:102100001800002070B504460D460348006801F031
:1021100022FF002070BD00001800002070B50546A9
:102120000024284601F0CAF9044624B929461CA017
:1021300001F032FC70BD22480068806FA04200D1DF
:10214000F8E740F24311204601F0BFF928BB1C48D4
:102150000068806F50B11A490968886F01F093F9DF
:1021600017490968886F002101F006FA5122002101
:1021700013480068223001F0F4FC0020104909687F
:10218000A1F874000E490968A1F876000C480068AF
:1021900084670C49204601F0EFF900BFCAE7000050
:1021A00066696E73683A2063616E206E6F74206694
:1021B000696E64206465766963653A2025730A0058
:1021C00018000020052100080549096891F8211030
:1021D00060F34101024A126882F821107047000042
:1021E00018000020024A1060024A11607047000087
:1021F00010000020140000207CB500251749184865
:10220000FFF7F0FF7C21012001F0EAF81549086092
:102210000846006820B914A001F0BEFB681E7CBD12
:102220000A2015214FF480630022CDE900101449E3
:1022300014A002F040F9044600231A4613A10948ED
:10224000006801F075FE0120FFF7BEFF1CB115B953
:10225000204602F027FA0020E1E70000345500088C
:10226000C8540008180000206E6F206D656D6F72F5
:102270007920666F72207368656C6C0A000000003C
:1022800095220008747368656C6C0000736872783E
:1022900000000000EE48006890F8210020F00100E6
:1022A000401CEB49096881F82100E9480068806F0B
:1022B00038B901F0C3F8054615B12846FFF72EFFDF
:1022C00000BFFFF7C7FE054601F066FBBEE1FFF762
:1022D000EFFE0446002C00DAB8E11B2C05D10120EA
:1022E000DB49096881F82000B0E1D948006890F81E
:1022F000200001280DD15B2C05D10220D4490968AA
:1023000081F82000A2E10020D149096881F820006D
:1023100045E0CF48006890F8200002283FD1002017
:10232000CB49096881F82000412C00D18EE1422C74
:1023300000D18BE1442C11D1C5480068B0F876007B
:1023400058B1C4A001F028FBC1480068B0F876007D
:10235000401EBF490968A1F8760077E1432C1ED1E1
:10236000BB480068B0F87600B9490968B1F8741044
:10237000884213DAB6480068B0F87620B44800689E
:102380002230815CB4A001F007FBB1480068B0F8CE
:102390007600401CAE490968A1F8760056E10CB100
:1023A000FF2C00D152E1092C1FD1002503E0A9A088
:1023B00001F0F2FA6D1CA6480068B0F87600A84259
:1023C000F5DCA3480068223002F0FCFCA04800685D
:1023D0002230FDF79BFF80B29D490968A1F8740087
:1023E0009B490968A1F8760030E17F2C01D0082CC8
:1023F0006ED197480068B0F8760000B926E194489D
:102400000068B0F87400401E91490968A1F8740092
:102410008F480068B0F87600401E8D490968A1F821
:1024200076008B480068B0F8740089490968B1F8F3
:10243000761088423FDD864B1B68B3F87430844EBB
:102440003668B6F876609A1B814B1B68B3F8763015
:102450005B1C7F4E3668223699197D4B1B68B3F89A
:1024600076607B4B1B682233F01801F059FB002289
:1024700077480068B0F874107548006822304254FC
:1024800073480068B0F8762071480068223011184F
:1024900072A001F081FA6E480068B0F8765003E04F
:1024A0006CA001F079FA6D1C69480068B0F87400FE
:1024B000A842F5DA0BE06BA001F06EFA0021644847
:1024C0000068B0F874206248006822308154BDE092
:1024D0000D2C01D00A2C28D15D48006890F821000D
:1024E00000F0010010B160A001F056FA58480068F1
:1024F000B0F8741056480068223000F045FDFFF730
:10250000A9FD054601F048FA512200215048006813
:10251000223001F026FB00204D490968A1F8740023
:102520004B490968A1F8760090E049480068B0F886
:102530007400502804DB002045490968A1F87400A4
:1025400043480068B0F8760041490968B1F8741052
:10255000884245DA3E4B1B68B3F874303C4E36680F
:10256000B6F876609A1B3A4B1B68B3F87660384B26
:102570001B682233F118364B1B68B3F876305B1CAE
:10258000334E36682236981901F0CAFA304800688E
:10259000B0F876102E480068223044542C48006869
:1025A00090F8210000F0010050B129480068B0F80F
:1025B000762027480068223011182CA001F0ECF991
:1025C00023480068B0F8765003E022A001F0E4F957
:1025D0006D1C1F480068B0F87400A842F5DC12E0DA
:1025E0001B480068B0F874201948006822308454F1
:1025F0001748006890F8210000F0010018B121464A
:1026000015A001F0C9F9002411480068B0F8740061
:10261000401C0F490968A1F874000D480068B0F823
:102620007600401C0A490968A1F87600084800684D
:10263000B0F87400502808DB002005490968A1F8AB
:10264000740003490968A1F8760000BF3FE6000066
:1026500018000020080000002563000008257320F2
:1026600020080000082008000A0000002573000070
:1026700010B51448006800F0020010B112A001F07B
:102680008BF91048006800F0804088B10D48C01EEA
:10269000007808B1FFF7C0FB0A48001F007808B1B6
:1026A00000F0BCFB0748801E008808B102F0FEFB6A
:1026B0000448006800F0004010B109A001F06CF976
:1026C00010BD00002CED00E06661696C6564207649
:1026D0006563746F722066657463680A00000000A9
:1026E0006465627567206576656E740A0000000097
:1026F00012E000224FF400510848FEF709F94FF4A8
:10270000FA7001F07FFF012251030448FEF700F93F
:102710004FF4FA7001F076FFEBE700000010014083
:102720002DE9F04F8FB000270FF2A80A082302AA64
:1027300009210AA800F088F84FF0080852464146DF
:1027400026A001F029F9404600F01EFD2DA001F061
:1027500023F900BF0AA9384600F08BF80746002588
:102760002EE002A850F82500A0F10C06FDF72CFD84
:102770008346307A20F080009DF83010884203D0E4
:102780005846FDF725FD1AE05846FDF721FD344671
:102790000FF29409207D1E2807DA207D244951F884
:1027A000200010B1207D51F82090A07E2346082201
:1027B0004146CDE900901FA001F0EEF800BF6D1C6E
:1027C0000E98A842CDDC002FC4D100200FB0BDE888
:1027D000F08F00006465766963650000252D2A2E60
:1027E0007320202020202020202074797065202054
:1027F0002020202020202072656620636F756E7473
:102800000A000000202D2D2D2D2D2D2D2D2D2D2DAF
:102810002D2D2D2D2D2D2D2D2D202D2D2D2D2D2DF5
:102820002D2D2D2D0A000000556E6B6E6F776E00FA
:10283000C84F0008252D2A2E2A7320252D323073EB
:1028400020252D38640A00002DE9F04704460D4686
:1028500016461F46284601F01DFA814609F1040874
:10286000C4F8008025726660E76000202061BDE842
:10287000F0872DE9F84F07460C464FF0000A00207C
:102880002061E06808B1207A10B90020BDE8F88F17
:10289000D4F800801FB945464FF0010A00E03D46DC
:1028A000FDF792FC0090BAF1000F0ED1A5F10C0BD0
:1028B0009BF8080020F08000217A884204D000981C
:1028C000FDF786FC0020E1E700BF0026D4F8049065
:1028D0000BE02D68454501D1002507E0761C49F83D
:1028E000045BE068B04200D100E0F2E700BF00986E
:1028F000FDF76EFC26612846C8E700002DE9F04F81
:102900008FB000270FF2D409082302AA02210AA8D7
:10291000FFF79AFF4FF008084A46414632A001F0FF
:102920003BF8404600F030FC36A001F035F800BF1F
:102930000AA93846FFF79DFF0746002545E002A893
:1029400050F82500A0F10C06FDF73EFC8246307AD7
:1029500020F080009DF83010884203D05046FDF7EB
:1029600037FC31E05046FDF733FC344604F11400E7
:102970000168814201D1012100E00021A9B904F1DF
:10298000140001F057F88346A08B234608224146E5
:10299000CDE9000B21A000F0FFFF04F1140002F0CC
:1029A00029FA17A000F0F8FF0DE004F1140001F07F
:1029B00041F88346A08B234608224146CDE9000B0F
:1029C0001AA000F0E9FF00BF6D1C0E98A842B6DC0B
:1029D000002FADD100200FB0BDE8F08F73656D61A1
:1029E00070686F7265000000252D2A2E73207620F6
:1029F000202073757370656E6420746872656164FD
:102A00000A000000202D2D2D202D2D2D2D2D2D2DBA
:102A10002D2D2D2D2D2D2D0A00000000252D2A2EC7
:102A20002A7320253033642025643A00252D2A2E70
:102A30002A7320253033642025640A002DE9F04FE5
:102A4000B1B04FF000090FF2241B082323AA012183
:102A50002BA8FFF7F9FE4FF0080A5A4651464548A1
:102A600000F09AFF504600F08FFB43A000F094FF67
:102A700000BF2BA94846FFF7FCFE81464FF0000837
:102A800069E023A850F82800A0F10C05FDF79CFB95
:102A90003090287A20F080009DF8B410884203D04E
:102AA0003098FDF795FB54E07822294605A800F000
:102AB000F9FF3098FDF78CFB2C4694F8350023463F
:102AC0000822514600903CA000F066FF94F83400C4
:102AD00000F00706012E03D13AA000F05DFF15E0DB
:102AE000022E03D13AA000F057FF0FE01EB93BA021
:102AF00000F052FF0AE0042E03D13BA000F04CFF8F
:102B000004E0032E02D13BA000F046FFA76A00E0DC
:102B10007F1C38782328FBD0206B01F02DFC04901B
:102B2000D4E90A10791A401A64214843E16AB0FBDB
:102B3000F1F003900498216CCDE90010E369A06ADC
:102B4000C01AE36AC1181A462DA0039B00F024FFA7
:102B500000BF08F101082F98404592DCB9F1000F41
:102B600087D1002031B0BDE8F08F00007468726535
:102B70006164000064510008202D2D2D20202D2D92
:102B80002D2D2D2D2D202D2D2D2D2D2D2D2D2D2D82
:102B9000202D2D2D2D2D2D2D2D2D2D20202D2D2D8C
:102BA0002D2D2D20202D2D2D2D2D2D2D2D2D2D207C
:102BB0002D2D2D0A00000000252D2A2E2A732025F8
:102BC00033642000207265616479202000000000D9
:102BD0002073757370656E640000000020696E6973
:102BE000742020200000000020636C6F736520209B
:102BF000000000002072756E6E696E6700000000B4
:102C000020307825303878203078253038782020EA
:102C100020202530326425252020203078253038AA
:102C2000782025730A0000002DE9F04790B00027B6
:102C30000FF2C809082303AA0A210BA8FFF704FE14
:102C40004FF008084A4641462EA000F0A5FE404637
:102C500000F09AFA38A000F09FFE00BF0BA938469A
:102C6000FFF707FE0746002638E003A850F82600C5
:102C7000A0F10C05FDF7A8FA8246287A20F0800022
:102C80009DF83410884203D05046FDF7A1FA24E0A5
:102C90005046FDF79DFA2C46D4E909012346082247
:102CA000CDE90001414630A000F076FE607A00F0E8
:102CB000010018B132A000F06FFE02E034A000F075
:102CC0006BFE607A00F0020018B135A000F064FEDF
:102CD00002E036A000F060FE00BF761C0F98B04204
:102CE000C3DC002FBAD101F031FD0446214632A0E9
:102CF00000F052FE002010B0BDE8F08774696D65E9
:102D000072000000252D2A2E732020706572696FD5
:102D100064696320202074696D656F7574202020BC
:102D20002061637469766174656420202020206DC1
:102D30006F64650A00000000202D2D2D2D2D2D2DF6
:102D40002D2D2D202D2D2D2D2D2D2D2D2D2D202DCD
:102D50002D2D2D2D2D2D2D2D2D2D202D2D2D2D2DB0
:102D60002D2D2D2D0A000000252D2A2E2A7320300E
:102D700078253038782030782530387820000000E9
:102D8000616374697661746564202020000000002E
:102D90006465616374697661746564200000000095
:102DA000706572696F6469630A0000006F6E652068
:102DB00073686F740A00000063757272656E742028
:102DC0007469636B3A3078253038780A0000000067
:102DD0001CB5FDF7B5FDFEF7DBFCFEF755FCFEF775
:102DE0009BFC0A2000904FF40073002205490190DB
:102DF00005A001F060FB044614B1204601F052FC2E
:102E000000BFFEE7F12600086C65640010B50446BB
:102E100000F006FBFFF7DCFF10BD000010B51CA0A2
:102E200000F0BAFD1F4801781FA000F0B5FD1D4855
:102E3000007800F0010010B121A000F0ADFD1948AC
:102E4000007800F0020010B120A000F0A5FD1548A8
:102E5000007800F0080010B11FA000F09DFD11489F
:102E6000007800F0100010B11EA000F095FD0D4894
:102E7000007800F0800030B10A480C3001681CA0D6
:102E800000F08AFD02E01EA000F086FD10BD0000EB
:102E90006D656D206D616E616765206661756C742E
:102EA0003A0A000028ED00E05343425F4346535284
:102EB0005F4D4653523A307825303258200000009A
:102EC0004941434356494F4C20000000444143438D
:102ED00056494F4C200000004D554E53544B45521F
:102EE000522000004D53544B455252200000000028
:102EF0005343422D3E4D4D41523A253038580A0039
:102F00000A0000002DE9F04781460026002799F8C5
:102F1000000028B90021084600F08CF8BDE8F087D1
:102F2000164805681EE0D5F800804846FDF7EEF922
:102F30008246524641464846FDF707FA88B926B907
:102F400047463846FDF7E2F906464146384601F065
:102F500080FF0446B44200DA2646414608A000F04D
:102F60001BFD0C35074800688542DCD327B132468B
:102F70003946484601F02DFA00BFCFE71000002087
:102F800025730A001400002038B504460D4601E000
:102F9000641C6D1E2DB120782028F9D020780928D6
:102FA000F6D00DB9002038BD6A4629462046FEF706
:102FB00048FE08B90098F6E7204600E0401C01787A
:102FC000202902D001780029F8D100210170214682
:102FD00002A000F0E1FC4FF0FF30E4E725733A2057
:102FE000636F6D6D616E64206E6F7420666F756EB9
:102FF000642E0A002DE9F04106460D4600270B48D5
:1030000004680BE02A4631462068FDF79EF920B996
:103010002068405D08B9A76804E00C3404480068E3
:103020008442EFD300BF3846BDE8F0811000002095
:103030001400002070B505460E460AA000F0ACFC56
:103040000F48046805E00FA0D4E9001200F0A4FCCA
:103050000C340F4800688442F5D30EA000F09CFCAD
:10306000002070BD52542D546872656164207368ED
:10307000656C6C20636F6D6D616E64733A0A00005D
:1030800010000020252D313673202D2025730A00D5
:10309000140000200A0000002DE9F04782460E4689
:1030A000904654460025002755E003E0002020709C
:1030B000641C6D1C2078202802D02078092801D1BA
:1030C000B542F3D3082F12D326A000F065FC4FF0D1
:1030D000000906E058F829102AA000F05DFC09F16B
:1030E0000109B945F6D326A000F056FC35E0B542FB
:1030F00000D332E0207822281CD1641C6D1C48F8D3
:1031000027407F1C09E020785C2804D160782228C1
:1031100001D1641C6D1C641C6D1C2078222801D018
:10312000B542F0D3B54200D317E000202070641CF4
:103130006D1C10E048F827407F1C01E0641C6D1CEA
:103140002078202804D02078092801D0B542F5D372
:10315000B54200D301E0B542A7D300BF3846BDE871
:10316000F0870000546F6F206D616E792061726787
:10317000732021205765206F6E6C79205573653A56
:103180000A0000002573200010B5044602E004A0E8
:1031900000F002FC201EA4F10104F8D110BD0000D3
:1031A0002D00000070B5846A4D686219914214D0F8
:1031B000147804F0010484B9C46A94420DD0046BFD
:1031C000944200D101630024146054684C60846A06
:1031D0000C1B856A56683544AC60846A8D68631937
:1031E0008B4211D01C7804F001046CB9046B8C4242
:1031F00000D1036300240C604C685C60846A1C1B73
:10320000856A4E683544AC6070BD00002DE9F04F12
:1032100086B00D469C46DDE9106401960F9B04F0D4
:103220004008B8F1000F02D0DFF8708101E0DFF84C
:103230007081CDF8008004F01008B8F1000F01D0C3
:1032400024F0010404F00108B8F1000F02D04FF09F
:10325000300801E04FF02008C246002704F00208C1
:10326000B8F1000F11D0002A02DA2D2752420CE0EB
:1032700004F00408B8F1000F01D02B2705E004F09A
:103280000808B8F1000F00D02027002142B94FF004
:10329000300B8846491C0DF1080909F808B01DE0FB
:1032A0001AE0E146B9F10A0F08D14FF00A0BB2FB60
:1032B000FBFE0BFB1E28B2FBFBF202E002F00F0844
:1032C000120900BFDDF8009019F808B08846491CC3
:1032D0000DF1080909F808B0002AE2D1B14200DD79
:1032E0000E469B1B04F01108B8F1000F10D117B166
:1032F000002B00DD5B1E06E0A84203D24FF0200841
:1033000080F80080401CB3F10008A3F10103F3DC56
:1033100027B1A84200D207705B1E401C04F01008C1
:10332000B8F1000F0AD104E0A84201D280F800A051
:10333000401CB3F10008A3F10103F5DC06E0A8424C
:1033400003D24FF0300880F80080401CB046761E53
:103350008845F4DC08E0A84205D20DF1080818F809
:10336000018080F80080401CB1F10008A1F101014A
:1033700004DDDDF80480B8F1000FECD106E0A842CE
:1033800003D24FF0200880F80080401CB3F1000801
:10339000A3F10103F3DC06B0BDE8F08F5151000842
:1033A0004051000870B504460D4600F097F970BD15
:1033B0001CB514200A214FF480630022CDE90010CF
:1033C000044905A001F077F80446204601F06AF9A7
:1033D0001CBD00000D2E00086D61696E000000002C
:1033E00070B504460D4604FB05F000F049FB0646A7
:1033F0002EB104FB05F20021304600F0B2FB30464E
:1034000070BD000010B5044C02E020688047241D08
:1034100002488442F9D310BDB4540008BC540008DB
:1034200010B5044C02E020688047241D0248844205
:10343000F9D310BDBC540008C4540008014800680A
:10344000704700004400002070B519E001F05CF8FE
:10345000044604B915E0266F204600F05AFC0546E4
:10346000012D02D1204600F0DCFB0EB12046B04712
:103470002DB9A06A00F0D6F8204600F0C0FB00BFCE
:10348000E4E700BF70BD70B504460025A07E08B912
:10349000681E70BDA07E401EA076A07E08B10020F0
:1034A000F7E7E06A18B12046E16A884705460DB1A2
:1034B000A81D08B9002020832846EAE710B5044675
:1034C0000921204600F0BCFB10BD70B504460E4635
:1034D0000025A07D00F0100060B9606A30B1204680
:1034E000616A884705460DB1284670BDE08A40F004
:1034F0001000E082A07D00F0080030B1207E00F0D6
:10350000080010B16FF00600EFE7A06A28B131465D
:103510002046A26A9047054603E040F60F7030400F
:1035200020830DB1A81D30B9208B40F00800208306
:10353000A07E401CA0762846D7E72DE9F04104463E
:103540000D4616461F46A07E30B94FF0FF3000F002
:103550006BFD0020BDE8F081206B38B13B46324660
:1035600029462046D4F830C0E047F3E76FF0050065
:1035700000F05AFD0020EDE70246D16100207047BF
:103580002DE9F04104460D4616461F46A07E30B98F
:103590004FF0FF3000F048FD0020BDE8F081606B87
:1035A00038B13B46324629462046D4F834C0E0477D
:1035B000F3E76FF0050000F037FD0020EDE70000B5
:1035C00010B5FCF701FE044604480088401C00B218
:1035D000024908802046FCF7FBFD10BDD00000200A
:1035E00010B5FCF7F1FD04460C480088401E00B2FF
:1035F0000A4908800846B0F9000000280ADC0020CB
:1036000008802046FCF7E4FD0548006828B100F07A
:1036100089FB02E02046FCF7DBFD10BDD000002056
:10362000D400002070B5044604B970BDFEF7C0FA9E
:103630000546204600F0F8FD2846FEF7BEFA00BF1A
:10364000F3E7000000487047F4040020004870478A
:10365000F440002070B5FDF773F9FEF799F8FEF716
:10366000CBF8FDF74FFB4FF47A71B0FBF1F4204635
:10367000FDF7D8FDFFF7C6FEFFF7E8FF0446FFF7AA
:10368000E1FF0546214600F0BFFE70BDF8B50546D6
:10369000002400260D20009000BF00200E4981F874
:1036A000400000BF284600F077FE064600BF0FE04E
:1036B000285D0A2805D101231A4669460648FDF708
:1036C00083FF291901231A460348FDF77DFF641C77
:1036D000B442EDD3F8BD0000F44000200148024997
:1036E000086070470400FA050CED00E070B505466F
:1036F0002C1D2F48006838B128462D490968884795
:10370000064606B970BD00BF2AA0E16B00F044F97F
:103710002CA0216A00F040F92EA0616A00F03CF96B
:1037200030A0A16A00F038F932A0E16A00F034F963
:1037300034A0216800F030F936A0616800F02CF95F
:1037400038A0A16800F028F93AA0E16800F024F957
:103750003CA0216900F020F93EA0616900F01CF94D
:1037600040A0A16900F018F942A0E16900F014F945
:1037700044A0216B00F010F946A0616B00F00CF939
:1037800048A0A16B00F008F9287800F0040038B1D7
:1037900000F060FF0646314646A000F0FDF802E06A
:1037A0004CA000F0F9F8FEF763FF00BFFEE7000051
:1037B0002C0000207073723A203078253038780A57
:1037C000000000007230303A203078253038780A16
:1037D000000000007230313A203078253038780A05
:1037E000000000007230323A203078253038780AF4
:1037F000000000007230333A203078253038780AE3
:10380000000000007230343A203078253038780AD1
:10381000000000007230353A203078253038780AC0
:10382000000000007230363A203078253038780AAF
:10383000000000007230373A203078253038780A9E
:10384000000000007230383A203078253038780A8D
:10385000000000007230393A203078253038780A7C
:10386000000000007231303A203078253038780A74
:10387000000000007231313A203078253038780A63
:10388000000000007231323A203078253038780A52
:1038900000000000206C723A203078253038780A19
:1038A000000000002070633A203078253038780A14
:1038B0000000000068617264206661756C74206F9E
:1038C0006E207468726561643A2025730D0A0D0AD2
:1038D0000000000068617264206661756C74206F7E
:1038E0006E2068616E646C65720D0A0D0A0000003E
:1038F000F0B504460D461646301D20F0070040384E
:103900000146002203E00C4F41F82270521C102A9D
:10391000F9D30D624FF0000CC1F824C0C1F828C0E3
:10392000C1F82CC0C1F830C04B638C634FF0807C71
:10393000C1F83CC0F0BD0000EFBEADDE10B5FCF735
:1039400043FC044604480078401C034908702046A4
:10395000FCF73EFC10BD00003C00002070B5FCF7F9
:1039600033FC0546034804782846FCF731FC204622
:1039700070BD00003C00002010B5FCF725FC04469B
:1039800004480078401E034908702046FCF720FCDC
:1039900010BD00003C0000200FB438B505A8009011
:1039A0007F210E48009B049A01F044F804467F2CC6
:1039B00000D97F240A48006818B90848FFF766FE56
:1039C00006E02346054A002105480068FFF7D8FDB8
:1039D00000200090204638BC5DF814FB74030020E2
:1039E0004400002040600060704702685160026837
:1039F0000A600160486070470268516002680A60AE
:103A00000160486070474268116042684A604160E6
:103A10000860704701460868884201D1012070475C
:103A20000020FCE701460868884201D10120704768
:103A30000020FCE7014600200A4601E01268401C15
:103A400013688B42FAD17047D0E900215160D0E968
:103A500000121160406000607047D0E900215160A1
:103A6000D0E900121160406000607047D0E9002189
:103A70005160D0E9001211604060006070470000A2
:103A800070B50446FEF794F80646214604480068DF
:103A900000F040FB05463046FEF78FF8284670BD23
:103AA000780000202DE9F0410F46164604463D46B9
:103AB0003346102B28D305F0030C04F003084CEA1E
:103AC000080CBCF1000F1FD121462A4610E052F825
:103AD00004CB41F804CB52F804CB41F804CB52F8A4
:103AE00004CB41F804CB52F804CB41F804CB103B93
:103AF000102BECD204E052F804CB41F804CB1B1F8E
:103B0000042BF8D20C46154603E015F801CB04F857
:103B100001CBB3F1000CA3F10103F6D1BDE8F081B4
:103B200070B50C46014623468B4210D29D188D423B
:103B30000DD91144134405E05D1E2B462E784D1E11
:103B400029462E70151EA2F10102F5D108E003E00E
:103B500013F8015B01F8015B151EA2F10102F7D118
:103B600070BDF0B50C460546E6B2042A15D300F048
:103B7000030797B9014646EA062343EA034304E0F4
:103B800008C108C108C108C1103A102AF8D201E0E2
:103B900008C1121F042AFBD20D4601E005F8016B93
:103BA000171EA2F10102F9D1F0BD2DE9F041064640
:103BB0000F46304600F06EF80546E868FFF760FFF4
:103BC000044614B90020BDE8F08100212046EA68CF
:103BD000FFF7C7FF26720020607208223946204690
:103BE00000F0F7FBFCF7F0FA804604F10C01281D09
:103BF000FFF7FBFE4046FCF7EBFA2046E3E770B523
:103C0000044600202072FCF7DFFA054604F10C00A0
:103C1000FFF71AFF2846FCF7DBFA2046FFF702FD04
:103C200070BD70B5044600202072FCF7CDFA054641
:103C300004F10C00FFF708FF2846FCF7C9FA70BD35
:103C40002DE9F04104460F464FF0000800250026FC
:103C5000384600F01FF8064604B116B90020BDE84A
:103C6000F081FFF7ADFC75680CE0A5F10C080822A7
:103C70002146404600F099FB18B9FFF7B1FC4046D9
:103C8000EDE72D68301D8542EFD1FFF7A9FC00203C
:103C9000E5E70000024600210AE0074800EB0110BA
:103CA0000078904203D1044800EB01107047491C92
:103CB0000529F2DB0020F9E77C0000202DE9F04720
:103CC00004460D46904600262846FFF7E3FF0746C8
:103CD000FFF776FC7E6802E0A6F10C003668381D1E
:103CE0008642F9D1FFF77CFC45F080002072082263
:103CF0004146204600F06DFBFCF766FA814604F170
:103D00000C01381DFFF771FE4846FCF761FABDE86B
:103D1000F0870146087A00F0800008B10120704762
:103D20000020FCE7F8B5FCF74FFA06463F4800884C
:103D3000002875D13E480068002870D000276846EA
:103D4000FDF7B6FF04463B48006890F8340000F0E9
:103D50000700032825D13748006890F835000099FE
:103D6000884202D23348046811E03248006890F873
:103D700035000099884209D12E48006890F8340037
:103D800000F0080010B92B48046800E0012729481A
:103D9000006890F8340020F008002649096881F88E
:103DA000340024480068844228D0234900980870D1
:103DB00020480568046017B1284600F041F8204605
:103DC00000F08CF894F8340020F0070040F0030075
:103DD00084F834001948007848B904F11C0105F151
:103DE0001C00FCF7F8F93046FCF7F2F91CE004F18E
:103DF0001C0105F11C00FCF7EEF90FE00D4800680E
:103E000000F06CF80B48006890F8340020F00700D0
:103E100040F003000749096881F8340000BF00BF83
:103E20003046FCF7D5F900BFF8BD0000D0000020F7
:103E3000CC000020D4000020D80000203C0000204E
:103E400070B50446FCF7C0F9054621480068844275
:103E500008D194F8340020F0070040F0030084F803
:103E6000340030E014F8340F20F0070040F0010077
:103E7000207014F8340900F0080070B194F835206F
:103E8000144B03EBC20004F1140142681160426854
:103E90004A604160086000BF0EE094F835200D4B89
:103EA00003EBC20004F114010268516002680A6069
:103EB0000160486000BF00BF0749A06B0968084364
:103EC0000549086000BF2846FCF782F970BD000074
:103ED000D4000020F4030020CC00002070B504467C
:103EE000FCF772F9054604F11400D0E90021516095
:103EF000D0E9001211604060006000BF94F83510F6
:103F0000094A02EBC1000168814201D1012100E0B0
:103F1000002129B10548A16B006888430349086066
:103F20002846FCF755F970BDF4030020CC000020B2
:103F30002DE9F04104460D4616461F462A46022149
:103F40002046FFF7BBFE2046FDF773FEA68367728F
:103F50000020BDE8F0812DE9F04104460025FCF782
:103F600033F9074604F11400FFF754FD48B900BFC8
:103F70006069A0F11406304600F04EFB00BF012539
:103F80000FE0A08B4FF6FF71884203DAA08B401C34
:103F9000A08306E03846FCF71BF96FF00200BDE88D
:103FA000F0813846FCF714F9012D01D1FFF7BAFE74
:103FB0000020F4E773B50546FCF706F90646A88B22
:103FC000002806DDA88B401EA8833046FCF700F9C8
:103FD00028E0019828B93046FCF7FAF86FF00100A4
:103FE0007CBD00F037FB0446002020636A7A21463E
:103FF00005F11400FDF7E6FD0198002809DD01AA8E
:10400000002104F1440000F021FC04F1440000F020
:104010007DFC3046FCF7DCF8FFF784FE206B08B12E
:10402000206BDDE70020DBE770B50446FFF796FC68
:1040300010B10648046070BD00F00CFB054615B9D0
:1040400002480460F7E72C6300BFF4E7400000205B
:104050001CB50AA0FFF7A0FC0BA0FFF79DFC13A066
:1040600015A101231A46CDE90010042115A0FFF780
:1040700093FC1DA0FFF790FC1CBD00000A205C20F3
:104080007C202F0A000000002D205254202D2020DB
:10409000202020546872656164204F7065726174DD
:1040A000696E672053797374656D0A0032303A3354
:1040B000383A3339000000004E6F7620323120321A
:1040C00030323500202F207C205C2020202020252D
:1040D000642E25642E2564206275696C6420257326
:1040E0002025730A000000002032303036202D20B9
:1040F0003230323220436F7079726967687420629F
:10410000792052542D546872656164207465616D24
:104110000A000000F0B507460B460BB90020F0BDC1
:104120003946D81C20F003030C2B00D20C23486B1B
:10413000984201D20020F2E7D1F828C0086BA0EB2A
:104140000C046BE0886A0219107800F00100002866
:1041500061D104F10C00D2F804C0ACEB000098422D
:1041600059D304F10C00D2F804C0ACEB000C03F1FD
:104170001800844523D304F10C00C618886A8519F9
:1041800021F00100286050686860AC605660D5F886
:1041900004C0486B0C30844504D0886AD5F804C04C
:1041A0006044866003F10C00D1F820C060440862CE
:1041B000D1E908C0604513D2086A486210E050682F
:1041C000D1F828C0A2EB0C0CA0EB0C00D1F820C059
:1041D00060440862D1E908C0604501D2086A4862BB
:1041E00021F00100401C1060086B904210D106E0E5
:1041F000D1F830C0886ADCF804C060440863086BFA
:10420000007800F0010018B1D1E90BC06045EFD192
:1042100002F10C0083E7886A20444468486BC01AA6
:10422000A0428FD200207AE770B5064606B970BD6D
:10423000A6F10C04206820F0010525F001002060A3
:10424000286BA04200D92C636068A96A611A401AE1
:10425000296A081A286221462846FEF7A3FF00BFF4
:10426000E5E700002DE9F74F0E461746F01C20F059
:10427000030404F1380B0BF1030020F00308F019DC
:1042800020F00309B9F1180F08D9A9F11800584511
:1042900004D3A9EB0800A0F1180A07E0F21931468F
:1042A0001BA0FFF779FB0020BDE8FE8F382200211C
:1042B0002046FFF756FC0C212046009AFFF7FEFC33
:1042C00022A06061C4F81880C4F81CA0C4F834A00F
:1042D000C4F82880A56A24F001002860606B0C30C7
:1042E00068600020A860A06A69680844E06224F061
:1042F0000100401CE16A0860606B0C30E16A4860B4
:10430000606B0C30E16A8860A06A20632046CBE7CE
:104310006D656D20696E69742C206572726F7220F4
:10432000626567696E2061646472657373203078BA
:1043300025782C20616E6420656E6420616464724F
:1043400065737320307825780A000000736D616C06
:104350006C0000000FB438B5044606A80090204653
:10436000009A059900F006FD0546002000902846B9
:1043700038BC5DF814FB00000146002900DA494210
:104380000B2902DD0348C06A7047024850F821003B
:10439000FAE700004800002001460A4600E0521CEF
:1043A00010780028FBD1501A704730B50346002022
:1043B0000BE011F8015B1C78641B64B2201E02D173
:1043C00013F8015B05B902E0521E002AF1D100BFCB
:1043D00030BD70B50346A2B118460C4600BF14F8B4
:1043E000016B00F8016B3EB902E0002500F8015BAB
:1043F000551E2A1EF9D102E0551E2A1EEFD100BF1C
:1044000000BF184670BD00002DE9F04104460D467E
:10441000E01C20F0030625F00307BA1B214604A088
:10442000FFF720FF0449086000BF00BFBDE8F0812E
:104430006865617000000000780000200020094AD3
:104440001080014607E0084A02EBC10040600060AE
:1044500000BF481C01462029F5DB0020034A1060FC
:1044600070470000D0000020F4030020CC000020A2
:1044700038B56846FDF71CFC044606480460204633
:10448000FFF72CFD032084F8340004F11C00FBF737
:10449000D0FE38BDD400002010B5002405E004494A
:1044A00001EBC400FFF79EFA641C002CF7D010BD8E
:1044B000DC00002070472DE9FF5F06460F4690465E
:1044C0001D46DDE90EAB31460120FFF76EFB81464C
:1044D000B9F1000F03D1002004B0BDE8F09F2846D9
:1044E000FFF7CEFA044624B94846FFF788FB0020C0
:1044F000F2E743463A46314648468DE8300CFDF730
:1045000005FC4846E8E7000070B500250C4C206823
:10451000A04213D02068A0F11405FBF755FE064613
:1045200005F11400D0E900215160D0E900121160BA
:104530004060006000BF3046FBF74AFE284670BD71
:10454000340000200246054802F114010368596056
:1045500003680B600160486000BF704734000020B2
:1045600001E0FEF771FFFCE710B586B0002420E003
:10457000224612A104A8FFF7EDFE20211F22CB0046
:10458000104800EB0420CDE9013203910090C4EB08
:1045900004110D4A02EBC10000230C4A04A900F0EB
:1045A00017F8C4EB0411084A02EBC10000F07AF8D6
:1045B000641C002CDCD006B010BD00007469646C73
:1045C0006525640074020020FC010020614500089C
:1045D0002DE9FF5F05460C4616461F46DDE910AB88
:1045E000DDE90E89224601212846FFF767FB3B469D
:1045F0003246214628468DE8000FFDF787FB04B0C0
:10460000BDE8F09F70B50446204600F083F80546EB
:10461000284600F025F870BD70B5044694F83400C3
:1046200000F00700022802D04FF0FF3070BDFBF70A
:10463000CBFD054604F11400FFF70FFA04F1440026
:1046400000F0E0F92046FFF7FBFB2846FBF7C0FD32
:104650000020EBE70148006870470000D40000200C
:1046600031B5FFF7F7FF0446FBF7AEFD0546002026
:104670002063204600F02AF86A46002104F1440035
:1046800000F0E4F804F1440000F040F92846FBF79C
:104690009FFDFFF747FB206B801C08B900202063BB
:1046A000206B38BD10B5044694F8351001208840C1
:1046B000A063022084F834002046FFF7ADFFFFF727
:1046C000C9FF08B1FFF72EFB002010BD70B50446EE
:1046D00094F8340000F00705012D04D0032D02D01A
:1046E0004FF0FF3070BDFBF76FFD06462046FFF729
:1046F000F5FB94F8340020F0070040F0020084F845
:10470000340004F1440000F07DF93046FBF760FD11
:104710000020E7E70146002902DA4FF0FF3014E0FD
:104720004FF47A7291FBF2F24FF47A7302FB03F0CA
:104730001A4691FBF2F302FB13124FF47A735A43B9
:1047400002F2E73292FBF3F210447047014800682E
:10475000704700003000002070B5FBF735FD0546BE
:1047600010480068401C0F490860FFF773FF0446BB
:10477000206C401E2064206C68B9E06B206494F8C3
:10478000340040F0080084F834002846FBF720FD90
:10479000FFF7C8FA02E02846FBF71AFD00F004F81C
:1047A00070BD0000300000207CB56846FFF71AF9A4
:1047B000FFF7CCFF0546FBF707FD06463AE0224827
:1047C0000068A0F11404A06A281A6FF00041884222
:1047D0002ED22046FDF711FB607A00F0020018B9D6
:1047E000607A20F00100607204F114016846FFF75E
:1047F00003F9D4E907108847FFF7A8FF0546684684
:10480000FFF710F900B115E004F11400FFF72EF9DD
:10481000607A00F0020060B1607A00F0010040B1FF
:10482000607A20F001006072204600F06FF800E02E
:1048300005E000BF0448FFF7F5F80028BFD000BF2F
:104840003046FBF7C5FC7CBDDC0000202DE9F041C3
:1048500004460E461546FBF7B7FC0746062E21D246
:10486000DFE806F00603090E131D606A28601AE0EF
:104870002868606217E0607A20F00200607212E03F
:10488000607A40F0020060720DE0607A00F0010092
:1048900010B10120286001E00020286003E0A06A38
:1048A000286000E000BF00BF3846FBF791FC002005
:1048B000BDE8F08170B50446FBF786FC054620464E
:1048C000FDF79BFA607A20F0010060722846FBF742
:1048D0007FFC2046FFF7A5F9002070BD2DE9F843C5
:1048E00007460C4615461E46DDE9088922460A2180
:1048F0003846FFF7E3F94346324629463846CDF8B5
:104900000090FDF759FABDE8F88300002DE9F8435F
:1049100005464FF00008FBF757FC81462846FDF797
:104920006CFA687A20F001006872FFF70FFF696A7D
:104930000844A862314F009700242AE019E05DF88E
:1049400024201168142202EBC402881A826AAB6A1E
:10495000D21A00D108E0826AAB6AD21A6FF0004323
:104960009A4200D20CE000BF5DF8240000684DF8C8
:1049700024005DF8240007EBC40149688842DED1B9
:1049800000BF2CB15DF824000830611C4DF82100F7
:10499000641C002CD2D01A480068401C18490860DA
:1049A0000846066805F114010098FFF725F802246F
:1049B00012E006F0030060B9C4F1010305F114022E
:1049C00002EBC301C4F101025DF82200FFF714F805
:1049D00000E003E0B608641C012CEAD900BF687A45
:1049E00040F0010068724846FBF7F2FBB8F1000F97
:1049F00001D0FFF797F90020BDE8F883DC00002024
:104A0000E400002070B50446607A00F0010010B99F
:104A10004FF0FF3070BDFBF7D7FB05462046FDF792
:104A2000ECF9607A20F0010060722846FBF7D0FBB9
:104A30000020EFE72DE9FF4F89B081464C460A98E8
:104A400009EB00064E4504D24FF0FF36A6EB0900F5
:104A50000A9077E10B980078252806D0B44202D25C
:104A60000B9800782070641C69E1002526E00B9803
:104A7000401C0B900B9800782D2802D145F01005B2
:104A80001CE00B9800782B2802D145F0040515E0B6
:104A90000B980078202802D145F008050EE00B980D
:104AA0000078232802D145F0200507E00B98007814
:104AB000302802D145F0010500E000E0D7E700BF53
:104AC0004FF0FF370B98007830380A2804D20BA833
:104AD00000F0ACF907460EE00B9800782A280AD1BE
:104AE0000B98401C0B900C9880C80C90002F02DA99
:104AF0007F4245F010054FF0FF3A0B9800782E28C2
:104B00001CD10B98401C0B900B98007830380A2869
:104B100004D20BA800F08AF982460AE00B980078CC
:104B20002A2806D10B98401C0B900C9850F804AB27
:104B30000C90BAF1000F01DA4FF0000A0020049047
:104B40000B980078682803D00B9800786C2805D162
:104B50000B98007804900B98401C0B900A2005904D
:104B60000B9800786F2873D00CDC632813D004DC1A
:104B700025286ED058286DD195E064286BD069281F
:104B8000F9D197E0702873D0732825D075286ED09E
:104B90007828F0D18AE005F0100040B904E0B44272
:104BA00001D220202070641C781E071EF7DC0C98B0
:104BB00010F8041B0C90C8B20790B44201D20798B9
:104BC0002070641C04E0B44201D220202070641CD8
:104BD000781E071EF7DCB2E00C98006806900C986F
:104BE000001D0C90069808B960A006904FF00008D0
:104BF00001E008F10108B84504D0069810F8080053
:104C00000028F6D1BAF1000F02DDD04500DDD04614
:104C100005F0100048B904E0B44201D22020207011
:104C2000641C38467F1E4045F6DC002008900BE0EF
:104C3000B44202D2069800782070641C0698401C8A
:104C400006900898401C089008984045F0DB09E061
:104C500026E01FE032E02CE00AE0B44201D220203E
:104C60002070641C38467F1E4045F6DC67E024E077
:104C7000781C10B9082745F00105CDE9007A0295A6
:104C80000C9804C8102331460C902046FEF7BEFA5B
:104C9000044654E0B44201D225202070641C4EE04A
:104CA000082005901DE045F0400500BF102005904C
:104CB00017E000BF45F0020500BF12E0B44201D288
:104CC00025202070641C0B98007830B1B44202D2C9
:104CD0000B9800782070641C02E00B98401E0B902B
:104CE0002DE000BF04986C2807D10C9850F804BB45
:104CF0000C9005F00200B8B116E0049868280BD1BA
:104D00000C9830F8041B1FFA81FB0C9005F0020090
:104D100050B10FFA8BFB07E00C9850F804BB0C90D5
:104D200005F0020000B100BFCDE9007A02955A46B5
:104D300031462046059BFEF769FA044600BF0B98F2
:104D4000401C0B900B98007800287FF483AE0A98E3
:104D500038B1B44202D20020207002E0002006F8F0
:104D6000010CA4EB09000DB0BDE8F08F284E554CA6
:104D70004C29000037B505460C4622464FF0FF315E
:104D80002846029BFFF756FE3EBD002070470020DC
:104D90007047002070470020704710B5FBF714FAE9
:104DA000FEF758FCFFF754F9FFF776FBFFF746FBD9
:104DB000FEF7FEFAFFF77EFBFFF7D6FBFFF758FB87
:104DC000002010BD70B5044607A0FEF7E5FD2046A3
:104DD000FEF798F8FDF73EF905462246294603A05E
:104DE000FEF7DAFD70BD00000A0000002573257390
:104DF0000000000070B5044625680DE0A5F114061A
:104E00003246082106A0FEF7C7FD2868A04202D05E
:104E100005A0FEF7C1FD2D68A542EFD170BD0000D1
:104E2000252E2A73000000002F00000001460020FC
:104E300009E00B685A1C0A601A7800EB800302EB49
:104E40004302A2F130000A681278303A0A2AF0D3FD
:104E5000704710B503461A4601E0521C491C1078F1
:104E600028B1087818B110780C78A042F5D0D01A83
:104E700010BD000010B50B480B4908604FF4E1303D
:104E80004860002108488160C16001610C214161D6
:104E900000218161C161FCF718FB08B100BFFEE78A
:104EA000002010BD00380140F440002010B51EA0C5
:104EB000FEF772FD2048018820A0FEF76DFD1E4818
:104EC000008800F0010010B122A0FEF765FD1A482D
:104ED000008800F0020010B121A0FEF75DFD164829
:104EE000008800F0040010B120A0FEF755FD124824
:104EF000008800F0080010B11EA0FEF74DFD0E481E
:104F0000008800F4807010B11CA0FEF745FD0A482F
:104F1000008800F4007010B11BA0FEF73DFD05A055
:104F2000FEF73AFD10BD000075736167652066618C
:104F3000756C743A0A0000002AED00E05343425FAA
:104F4000434653525F554653523A307825303258D3
:104F500020000000554E444546494E53545220000F
:104F6000494E56535441544520000000494E565076
:104F7000432000004E4F435020000000554E414C4E
:104F800049474E454420000044495642595A45522B
:104F90004F20000010B5FFF75BF8002010BD0203A2
:104FA0000405060708090A0B0C0D0E0F101001026C
:104FB00000000000000000000102030406070809C9
:104FC0000000000001020304B4520008645200080B
:104FD000AC510008D8510008FC510008A851000845
:104FE00030520008205200081453000840520008B4
:104FF0003C5300081C53000828530008E4510008E3
:1050000030530008905200080C53000874520008F6
:10501000A4520008D8520008C85200085452000890
:10502000F0520008FC5200080852000884520008A0
:10503000CC510008C051000814520008F05100087B
:105040000000010002000100030001000200010055
:105050000400010002000100030001000200010041
:105060000500010002000100030001000200010030
:105070000400010002000100030001000200010021
:10508000060001000200010003000100020001000F
:105090000400010002000100030001000200010001
:1050A00005000100020001000300010002000100F0
:1050B00004000100020001000300010002000100E1
:1050C00007000100020001000300010002000100CE
:1050D00004000100020001000300010002000100C1
:1050E00005000100020001000300010002000100B0
:1050F00004000100020001000300010002000100A1
:10510000060001000200010003000100020001008E
:105110000400010002000100030001000200010080
:10512000050001000200010003000100020001006F
:105130000400010002000100030001000200010060
:1051400030313233343536373839616263646566FD
:1051500000303132333435363738394142434445F3
:1051600046000000252D2A2E7320707269202073BE
:1051700074617475732020202020207370202020FB
:105180002020737461636B2073697A65206D617888
:105190002075736564206C656674207469636B2088
:1051A000206572726F720A00525443004E65747724
:1051B0006F726B20496E74657266616365000000F2
:1051C00044414320446576696365000041444320BF
:1051D00044657669636500004D54442044657669F2
:1051E000636500005350492044657669636500009B
:1051F00050574D20446576696365000043414E2059
:105200004465766963650000574C414E20446576DD
:1052100069636500574454204465766963650000FE
:105220004772617068696320446576696365000050
:10523000536F756E642044657669636500000000F5
:1052400055534220536C61766520446576696365E9
:1052500000000000546F75636820446576696365DB
:1052600000000000426C6F636B20446576696365E3
:1052700000000000506F7274616C204465766963B1
:105280006500000050696E20446576696365000022
:10529000504D2050736575646F2044657669636571
:1052A0000000000054696D6572204465766963658D
:1052B0000000000043686172616374657220446598
:1052C000766963650000000053656E736F72204459
:1052D00065766963650000004D697363656C6C6198
:1052E0006E656F7573204465766963650000000024
:1052F000506879204465766963650000536563757D
:1053000072697479204465766963650050697065D7
:10531000000000004932432042757300555342207B
:105320004F54472042757300535049204275730013
:105330005344494F204275730000000055534220EA
:10534000486F737420427573000000004F4B0000DB
:1053500045494E56414C000045525346554C4C0071
:10536000454E4F4D454D000045494F004552524F67
:1053700052000000454E4F535953000045494E54CA
:10538000525054004554494D4F55540045554E4BCD
:105390004E4F570045425553590000004552534562
:1053A00050545900636C65617200636C65617220D2
:1053B000746865207465726D696E616C20736372C8
:1053C00065656E0076657273696F6E0073686F77DE
:1053D0002052542D54687265616420766572736939
:1053E0006F6E20696E666F726D6174696F6E006CAE
:1053F0006973745F746872656164006C69737420AA
:10540000746872656164006C6973745F73656D00C4
:105410006C6973742073656D6170686F7265206963
:105420006E2073797374656D006C6973745F746951
:105430006D6572006C6973742074696D65722069A2
:105440006E2073797374656D006C6973745F646545
:1054500076696365006C6973742064657669636559
:1054600020696E2073797374656D006C69737400C4
:105470006C697374206F626A656374730068656C2D
:10548000700052542D546872656164207368656CB5
:105490006C2068656C702E007265626F6F740052CC
:1054A00065626F6F742053797374656D000000003E
:1054B000974D00088F4D0008754E00088B4D000871
:1054C000F9210008934D0008A4530008AA530008CE
:1054D000151F0008C4530008CC530008954F00085E
:1054E000EF530008FB5300083D2A0008075400084A
:1054F00010540008FD2800082954000834540008FE
:10550000292C000849540008555400082127000898
:105510006B54000870540008291F00087D540008CF
:105520008254000835300008985400089F54000841
:10553000A53300085455000800000020E8000000D2
:10554000280100083C560008E8000020B84600008A
:1055500044010008000000001000000001000000ED
:1055600000127A00000000000000000000000000AF
:10557000000000000000000000000000000000002B
:105580000000000000000000340000203400002073
:105590000000000000000000000000004C53000864
:1055A0006C53000884530008585300089C530008AB
:1055B00060530008745300089453000868530008AF
:1055C0007C530008505300088C5300080000000072
:1055D0000100000080000020800000207800000012
:1055E0000200000090000020900000202000000039
:1055F00009000000A0000020A000002040000000E2
:105600000A000000B0000020B00000202C000000C4
:105610000C000000C0000020C00000202800000096
:10562000000000000000000000000000000000007A
:0C5630000000000000000000000000006E
:04000005080000ED02
:00000001FF
